{
  "_format": "hh-sol-artifact-1",
  "contractName": "AssetLifecycleRegistry",
  "sourceName": "contracts/AssetLifecycleRegistry.sol",
  "abi": [
    {
      "inputs": [
        {
          "internalType": "address",
          "name": "_regulator",
          "type": "address"
        }
      ],
      "stateMutability": "nonpayable",
      "type": "constructor"
    },
    {
      "inputs": [],
      "name": "AccessControlBadConfirmation",
      "type": "error"
    },
    {
      "inputs": [
        {
          "internalType": "address",
          "name": "account",
          "type": "address"
        },
        {
          "internalType": "bytes32",
          "name": "neededRole",
          "type": "bytes32"
        }
      ],
      "name": "AccessControlUnauthorizedAccount",
      "type": "error"
    },
    {
      "inputs": [
        {
          "internalType": "uint256",
          "name": "assetId",
          "type": "uint256"
        }
      ],
      "name": "AssetAlreadyExists",
      "type": "error"
    },
    {
      "inputs": [
        {
          "internalType": "uint256",
          "name": "assetId",
          "type": "uint256"
        }
      ],
      "name": "AssetNotActive",
      "type": "error"
    },
    {
      "inputs": [
        {
          "internalType": "uint256",
          "name": "assetId",
          "type": "uint256"
        }
      ],
      "name": "AssetStatusFrozen",
      "type": "error"
    },
    {
      "inputs": [
        {
          "internalType": "uint256",
          "name": "assetId",
          "type": "uint256"
        }
      ],
      "name": "AssetStatusRedeemed",
      "type": "error"
    },
    {
      "inputs": [],
      "name": "EmptyMetadata",
      "type": "error"
    },
    {
      "inputs": [],
      "name": "InvalidAssetData",
      "type": "error"
    },
    {
      "inputs": [
        {
          "internalType": "uint256",
          "name": "assetId",
          "type": "uint256"
        }
      ],
      "name": "InvalidAssetId",
      "type": "error"
    },
    {
      "inputs": [
        {
          "internalType": "uint8",
          "name": "currentState",
          "type": "uint8"
        },
        {
          "internalType": "uint8",
          "name": "targetState",
          "type": "uint8"
        }
      ],
      "name": "InvalidStateTransition",
      "type": "error"
    },
    {
      "inputs": [
        {
          "internalType": "address",
          "name": "caller",
          "type": "address"
        }
      ],
      "name": "UnauthorizedIssuer",
      "type": "error"
    },
    {
      "inputs": [
        {
          "internalType": "address",
          "name": "caller",
          "type": "address"
        }
      ],
      "name": "UnauthorizedOracle",
      "type": "error"
    },
    {
      "inputs": [
        {
          "internalType": "address",
          "name": "caller",
          "type": "address"
        }
      ],
      "name": "UnauthorizedRegister",
      "type": "error"
    },
    {
      "inputs": [
        {
          "internalType": "address",
          "name": "caller",
          "type": "address"
        }
      ],
      "name": "UnauthorizedRegulator",
      "type": "error"
    },
    {
      "anonymous": false,
      "inputs": [
        {
          "indexed": true,
          "internalType": "uint256",
          "name": "id",
          "type": "uint256"
        }
      ],
      "name": "AssetActivated",
      "type": "event"
    },
    {
      "anonymous": false,
      "inputs": [
        {
          "indexed": true,
          "internalType": "uint256",
          "name": "id",
          "type": "uint256"
        },
        {
          "indexed": true,
          "internalType": "address",
          "name": "regulator",
          "type": "address"
        }
      ],
      "name": "AssetFrozen",
      "type": "event"
    },
    {
      "anonymous": false,
      "inputs": [
        {
          "indexed": true,
          "internalType": "uint256",
          "name": "id",
          "type": "uint256"
        },
        {
          "indexed": true,
          "internalType": "address",
          "name": "issuer",
          "type": "address"
        }
      ],
      "name": "AssetRedeemed",
      "type": "event"
    },
    {
      "anonymous": false,
      "inputs": [
        {
          "indexed": true,
          "internalType": "uint256",
          "name": "id",
          "type": "uint256"
        },
        {
          "indexed": true,
          "internalType": "address",
          "name": "issuer",
          "type": "address"
        },
        {
          "indexed": false,
          "internalType": "enum AssetLifecycleRegistry.AssetType",
          "name": "assetType",
          "type": "uint8"
        },
        {
          "indexed": false,
          "internalType": "string",
          "name": "dataHash",
          "type": "string"
        }
      ],
      "name": "AssetRegistered",
      "type": "event"
    },
    {
      "anonymous": false,
      "inputs": [
        {
          "indexed": true,
          "internalType": "uint256",
          "name": "id",
          "type": "uint256"
        },
        {
          "indexed": true,
          "internalType": "address",
          "name": "issuer",
          "type": "address"
        }
      ],
      "name": "AssetTokenized",
      "type": "event"
    },
    {
      "anonymous": false,
      "inputs": [
        {
          "indexed": true,
          "internalType": "uint256",
          "name": "id",
          "type": "uint256"
        },
        {
          "indexed": true,
          "internalType": "address",
          "name": "regulator",
          "type": "address"
        }
      ],
      "name": "AssetVerified",
      "type": "event"
    },
    {
      "anonymous": false,
      "inputs": [
        {
          "indexed": true,
          "internalType": "bytes32",
          "name": "role",
          "type": "bytes32"
        },
        {
          "indexed": true,
          "internalType": "bytes32",
          "name": "previousAdminRole",
          "type": "bytes32"
        },
        {
          "indexed": true,
          "internalType": "bytes32",
          "name": "newAdminRole",
          "type": "bytes32"
        }
      ],
      "name": "RoleAdminChanged",
      "type": "event"
    },
    {
      "anonymous": false,
      "inputs": [
        {
          "indexed": true,
          "internalType": "bytes32",
          "name": "role",
          "type": "bytes32"
        },
        {
          "indexed": true,
          "internalType": "address",
          "name": "account",
          "type": "address"
        },
        {
          "indexed": true,
          "internalType": "address",
          "name": "sender",
          "type": "address"
        }
      ],
      "name": "RoleGranted",
      "type": "event"
    },
    {
      "anonymous": false,
      "inputs": [
        {
          "indexed": true,
          "internalType": "bytes32",
          "name": "role",
          "type": "bytes32"
        },
        {
          "indexed": true,
          "internalType": "address",
          "name": "account",
          "type": "address"
        },
        {
          "indexed": true,
          "internalType": "address",
          "name": "sender",
          "type": "address"
        }
      ],
      "name": "RoleRevoked",
      "type": "event"
    },
    {
      "inputs": [],
      "name": "DEFAULT_ADMIN_ROLE",
      "outputs": [
        {
          "internalType": "bytes32",
          "name": "",
          "type": "bytes32"
        }
      ],
      "stateMutability": "view",
      "type": "function"
    },
    {
      "inputs": [],
      "name": "ISSUER_ROLE",
      "outputs": [
        {
          "internalType": "bytes32",
          "name": "",
          "type": "bytes32"
        }
      ],
      "stateMutability": "view",
      "type": "function"
    },
    {
      "inputs": [],
      "name": "REGULATOR_ROLE",
      "outputs": [
        {
          "internalType": "bytes32",
          "name": "",
          "type": "bytes32"
        }
      ],
      "stateMutability": "view",
      "type": "function"
    },
    {
      "inputs": [
        {
          "internalType": "uint256",
          "name": "_id",
          "type": "uint256"
        }
      ],
      "name": "activateAsset",
      "outputs": [],
      "stateMutability": "nonpayable",
      "type": "function"
    },
    {
      "inputs": [
        {
          "internalType": "address",
          "name": "_issuer",
          "type": "address"
        }
      ],
      "name": "addIssuer",
      "outputs": [],
      "stateMutability": "nonpayable",
      "type": "function"
    },
    {
      "inputs": [
        {
          "internalType": "uint256",
          "name": "",
          "type": "uint256"
        }
      ],
      "name": "assets",
      "outputs": [
        {
          "internalType": "uint256",
          "name": "id",
          "type": "uint256"
        },
        {
          "internalType": "string",
          "name": "dataHash",
          "type": "string"
        },
        {
          "internalType": "enum AssetLifecycleRegistry.AssetType",
          "name": "assetType",
          "type": "uint8"
        },
        {
          "internalType": "enum AssetLifecycleRegistry.AssetState",
          "name": "state",
          "type": "uint8"
        },
        {
          "internalType": "address",
          "name": "owner",
          "type": "address"
        },
        {
          "internalType": "uint256",
          "name": "registeredAt",
          "type": "uint256"
        },
        {
          "internalType": "uint256",
          "name": "updatedAt",
          "type": "uint256"
        }
      ],
      "stateMutability": "view",
      "type": "function"
    },
    {
      "inputs": [
        {
          "internalType": "uint256",
          "name": "_id",
          "type": "uint256"
        }
      ],
      "name": "freezeAsset",
      "outputs": [],
      "stateMutability": "nonpayable",
      "type": "function"
    },
    {
      "inputs": [
        {
          "internalType": "bytes32",
          "name": "role",
          "type": "bytes32"
        }
      ],
      "name": "getRoleAdmin",
      "outputs": [
        {
          "internalType": "bytes32",
          "name": "",
          "type": "bytes32"
        }
      ],
      "stateMutability": "view",
      "type": "function"
    },
    {
      "inputs": [
        {
          "internalType": "bytes32",
          "name": "role",
          "type": "bytes32"
        },
        {
          "internalType": "address",
          "name": "account",
          "type": "address"
        }
      ],
      "name": "grantRole",
      "outputs": [],
      "stateMutability": "nonpayable",
      "type": "function"
    },
    {
      "inputs": [
        {
          "internalType": "bytes32",
          "name": "role",
          "type": "bytes32"
        },
        {
          "internalType": "address",
          "name": "account",
          "type": "address"
        }
      ],
      "name": "hasRole",
      "outputs": [
        {
          "internalType": "bool",
          "name": "",
          "type": "bool"
        }
      ],
      "stateMutability": "view",
      "type": "function"
    },
    {
      "inputs": [
        {
          "internalType": "uint256",
          "name": "_id",
          "type": "uint256"
        }
      ],
      "name": "redeemAsset",
      "outputs": [],
      "stateMutability": "nonpayable",
      "type": "function"
    },
    {
      "inputs": [
        {
          "internalType": "string",
          "name": "_dataHash",
          "type": "string"
        },
        {
          "internalType": "enum AssetLifecycleRegistry.AssetType",
          "name": "_assetType",
          "type": "uint8"
        }
      ],
      "name": "registerAsset",
      "outputs": [
        {
          "internalType": "uint256",
          "name": "",
          "type": "uint256"
        }
      ],
      "stateMutability": "nonpayable",
      "type": "function"
    },
    {
      "inputs": [
        {
          "internalType": "address",
          "name": "_issuer",
          "type": "address"
        }
      ],
      "name": "removeIssuer",
      "outputs": [],
      "stateMutability": "nonpayable",
      "type": "function"
    },
    {
      "inputs": [
        {
          "internalType": "bytes32",
          "name": "role",
          "type": "bytes32"
        },
        {
          "internalType": "address",
          "name": "callerConfirmation",
          "type": "address"
        }
      ],
      "name": "renounceRole",
      "outputs": [],
      "stateMutability": "nonpayable",
      "type": "function"
    },
    {
      "inputs": [
        {
          "internalType": "bytes32",
          "name": "role",
          "type": "bytes32"
        },
        {
          "internalType": "address",
          "name": "account",
          "type": "address"
        }
      ],
      "name": "revokeRole",
      "outputs": [],
      "stateMutability": "nonpayable",
      "type": "function"
    },
    {
      "inputs": [
        {
          "internalType": "bytes4",
          "name": "interfaceId",
          "type": "bytes4"
        }
      ],
      "name": "supportsInterface",
      "outputs": [
        {
          "internalType": "bool",
          "name": "",
          "type": "bool"
        }
      ],
      "stateMutability": "view",
      "type": "function"
    },
    {
      "inputs": [
        {
          "internalType": "uint256",
          "name": "_id",
          "type": "uint256"
        }
      ],
      "name": "tokenizeAsset",
      "outputs": [],
      "stateMutability": "nonpayable",
      "type": "function"
    },
    {
      "inputs": [
        {
          "internalType": "uint256",
          "name": "_id",
          "type": "uint256"
        }
      ],
      "name": "verifyAsset",
      "outputs": [],
      "stateMutability": "nonpayable",
      "type": "function"
    }
  ],
  "bytecode": "0x60806040523480156200001157600080fd5b506040516200231d3803806200231d8339818101604052810190620000379190620002cf565b80600073ffffffffffffffffffffffffffffffffffffffff168173ffffffffffffffffffffffffffffffffffffffff16036200009f576040517fb6924e9100000000000000000000000000000000000000000000000000000000815260040160405180910390fd5b620000b46000801b82620000f060201b60201c565b50620000e77f20b5f7ac978e5d6199de06401411960dfa81d2f762655f6206bdc61d46fc19e682620000f060201b60201c565b50505062000301565b6000620001048383620001f360201b60201c565b620001e857600160008085815260200190815260200160002060000160008473ffffffffffffffffffffffffffffffffffffffff1673ffffffffffffffffffffffffffffffffffffffff16815260200190815260200160002060006101000a81548160ff021916908315150217905550620001846200025d60201b60201c565b73ffffffffffffffffffffffffffffffffffffffff168273ffffffffffffffffffffffffffffffffffffffff16847f2f8788117e7eff1d82e926ec794901d17c78024a50270940304540a733656f0d60405160405180910390a460019050620001ed565b600090505b92915050565b600080600084815260200190815260200160002060000160008373ffffffffffffffffffffffffffffffffffffffff1673ffffffffffffffffffffffffffffffffffffffff16815260200190815260200160002060009054906101000a900460ff16905092915050565b600033905090565b600080fd5b600073ffffffffffffffffffffffffffffffffffffffff82169050919050565b600062000297826200026a565b9050919050565b620002a9816200028a565b8114620002b557600080fd5b50565b600081519050620002c9816200029e565b92915050565b600060208284031215620002e857620002e762000265565b5b6000620002f884828501620002b8565b91505092915050565b61200c80620003116000396000f3fe608060405234801561001057600080fd5b50600436106101165760003560e01c80637c9db689116100a2578063ce371e9911610071578063ce371e99146102c9578063cf35bdd0146102f9578063d547741f1461032f578063e5bb219b1461034b578063ffba205f1461036757610116565b80637c9db6891461024157806382aefa241461025d57806391d148541461027b578063a217fddf146102ab57610116565b80632f2ff15d116100e95780632f2ff15d146101b557806336568abe146101d157806347bc7093146101ed57806359fd285c146102095780636e7bd1891461022557610116565b806301ffc9a71461011b578063144bf5891461014b57806320694db014610169578063248a9ca314610185575b600080fd5b610135600480360381019061013091906115a0565b610383565b60405161014291906115e8565b60405180910390f35b6101536103fd565b604051610160919061161c565b60405180910390f35b610183600480360381019061017e9190611695565b610421565b005b61019f600480360381019061019a91906116ee565b6104b9565b6040516101ac919061161c565b60405180910390f35b6101cf60048036038101906101ca919061171b565b6104d8565b005b6101eb60048036038101906101e6919061171b565b6104fa565b005b61020760048036038101906102029190611695565b610575565b005b610223600480360381019061021e9190611791565b61060d565b005b61023f600480360381019061023a9190611791565b610718565b005b61025b60048036038101906102569190611791565b6108b7565b005b610265610a56565b604051610272919061161c565b60405180910390f35b6102956004803603810190610290919061171b565b610a7a565b6040516102a291906115e8565b60405180910390f35b6102b3610ae4565b6040516102c0919061161c565b60405180910390f35b6102e360048036038101906102de9190611929565b610aeb565b6040516102f09190611994565b60405180910390f35b610313600480360381019061030e9190611791565b610d6c565b6040516103269796959493929190611afc565b60405180910390f35b6103496004803603810190610344919061171b565b610e70565b005b61036560048036038101906103609190611791565b610e92565b005b610381600480360381019061037c9190611791565b610f9d565b005b60007f7965db0b000000000000000000000000000000000000000000000000000000007bffffffffffffffffffffffffffffffffffffffffffffffffffffffff1916827bffffffffffffffffffffffffffffffffffffffffffffffffffffffff191614806103f657506103f58261117c565b5b9050919050565b7f20b5f7ac978e5d6199de06401411960dfa81d2f762655f6206bdc61d46fc19e681565b61044b7f20b5f7ac978e5d6199de06401411960dfa81d2f762655f6206bdc61d46fc19e633610a7a565b61048c57336040517fcdaa449b0000000000000000000000000000000000000000000000000000000081526004016104839190611b72565b60405180910390fd5b6104b67f114e74f6ea3bd819998f78687bfcb11b140da08e9b7d222fa9c1f1ba1f2aa122826104d8565b50565b6000806000838152602001908152602001600020600101549050919050565b6104e1826104b9565b6104ea816111e6565b6104f483836111fa565b50505050565b6105026112eb565b73ffffffffffffffffffffffffffffffffffffffff168173ffffffffffffffffffffffffffffffffffffffff1614610566576040517f6697b23200000000000000000000000000000000000000000000000000000000815260040160405180910390fd5b61057082826112f3565b505050565b61059f7f20b5f7ac978e5d6199de06401411960dfa81d2f762655f6206bdc61d46fc19e633610a7a565b6105e057336040517fcdaa449b0000000000000000000000000000000000000000000000000000000081526004016105d79190611b72565b60405180910390fd5b61060a7f114e74f6ea3bd819998f78687bfcb11b140da08e9b7d222fa9c1f1ba1f2aa12282610e70565b50565b6106377f20b5f7ac978e5d6199de06401411960dfa81d2f762655f6206bdc61d46fc19e633610a7a565b61067857336040517fcdaa449b00000000000000000000000000000000000000000000000000000000815260040161066f9190611b72565b60405180910390fd5b600060026000838152602001908152602001600020905061069a8160006113e5565b60018160020160016101000a81548160ff021916908360058111156106c2576106c1611a2e565b5b02179055504281600401819055503373ffffffffffffffffffffffffffffffffffffffff16827f5bd81a4d257100f5fe7df72a9e528a7aaf33871f8258739a331d2627a83f0aac60405160405180910390a35050565b6107427f114e74f6ea3bd819998f78687bfcb11b140da08e9b7d222fa9c1f1ba1f2aa12233610a7a565b61078357336040517f5d5e2cb200000000000000000000000000000000000000000000000000000000815260040161077a9190611b72565b60405180910390fd5b60006002600083815260200190815260200160002090503373ffffffffffffffffffffffffffffffffffffffff168160020160029054906101000a900473ffffffffffffffffffffffffffffffffffffffff1673ffffffffffffffffffffffffffffffffffffffff161461082e57336040517f5d5e2cb20000000000000000000000000000000000000000000000000000000081526004016108259190611b72565b60405180910390fd5b6108398160016113e5565b60028160020160016101000a81548160ff0219169083600581111561086157610860611a2e565b5b02179055504281600401819055503373ffffffffffffffffffffffffffffffffffffffff16827f9933703afca6f1dab96f55b486c86c6d883ee50448d1b1e9be6e4680b82cd62f60405160405180910390a35050565b6108e17f114e74f6ea3bd819998f78687bfcb11b140da08e9b7d222fa9c1f1ba1f2aa12233610a7a565b61092257336040517f5d5e2cb20000000000000000000000000000000000000000000000000000000081526004016109199190611b72565b60405180910390fd5b60006002600083815260200190815260200160002090503373ffffffffffffffffffffffffffffffffffffffff168160020160029054906101000a900473ffffffffffffffffffffffffffffffffffffffff1673ffffffffffffffffffffffffffffffffffffffff16146109cd57336040517f5d5e2cb20000000000000000000000000000000000000000000000000000000081526004016109c49190611b72565b60405180910390fd5b6109d88160036113e5565b60058160020160016101000a81548160ff02191690836005811115610a00576109ff611a2e565b5b02179055504281600401819055503373ffffffffffffffffffffffffffffffffffffffff16827f594bd5726295e00f3a93314897a7daa3b8b765dd8efac46f671c0108b88eb66960405160405180910390a35050565b7f114e74f6ea3bd819998f78687bfcb11b140da08e9b7d222fa9c1f1ba1f2aa12281565b600080600084815260200190815260200160002060000160008373ffffffffffffffffffffffffffffffffffffffff1673ffffffffffffffffffffffffffffffffffffffff16815260200190815260200160002060009054906101000a900460ff16905092915050565b6000801b81565b6000610b177f114e74f6ea3bd819998f78687bfcb11b140da08e9b7d222fa9c1f1ba1f2aa12233610a7a565b610b5857336040517f5d5e2cb2000000000000000000000000000000000000000000000000000000008152600401610b4f9190611b72565b60405180910390fd5b6000835103610b93576040517fae92135700000000000000000000000000000000000000000000000000000000815260040160405180910390fd5b60016000815480929190610ba690611bbc565b9190505550600060015490506040518060e00160405280828152602001858152602001846002811115610bdc57610bdb611a2e565b5b815260200160006005811115610bf557610bf4611a2e565b5b81526020013373ffffffffffffffffffffffffffffffffffffffff1681526020014281526020014281525060026000838152602001908152602001600020600082015181600001556020820151816001019081610c529190611e10565b5060408201518160020160006101000a81548160ff02191690836002811115610c7e57610c7d611a2e565b5b021790555060608201518160020160016101000a81548160ff02191690836005811115610cae57610cad611a2e565b5b021790555060808201518160020160026101000a81548173ffffffffffffffffffffffffffffffffffffffff021916908373ffffffffffffffffffffffffffffffffffffffff16021790555060a0820151816003015560c082015181600401559050503373ffffffffffffffffffffffffffffffffffffffff16817f0726d704ce9621e5f97a2554a81b790454bd05cb8498f6abf2da2f5a05f09d688587604051610d5a929190611ee2565b60405180910390a38091505092915050565b6002602052806000526040600020600091509050806000015490806001018054610d9590611c33565b80601f0160208091040260200160405190810160405280929190818152602001828054610dc190611c33565b8015610e0e5780601f10610de357610100808354040283529160200191610e0e565b820191906000526020600020905b815481529060010190602001808311610df157829003601f168201915b5050505050908060020160009054906101000a900460ff16908060020160019054906101000a900460ff16908060020160029054906101000a900473ffffffffffffffffffffffffffffffffffffffff16908060030154908060040154905087565b610e79826104b9565b610e82816111e6565b610e8c83836112f3565b50505050565b610ebc7f20b5f7ac978e5d6199de06401411960dfa81d2f762655f6206bdc61d46fc19e633610a7a565b610efd57336040517fcdaa449b000000000000000000000000000000000000000000000000000000008152600401610ef49190611b72565b60405180910390fd5b6000600260008381526020019081526020016000209050610f1f8160036113e5565b60048160020160016101000a81548160ff02191690836005811115610f4757610f46611a2e565b5b02179055504281600401819055503373ffffffffffffffffffffffffffffffffffffffff16827f7ff4f566143abe03278f628bf28fbb4a49ceedb3eafde17d3a0921696e0fcf4a60405160405180910390a35050565b610fc77f20b5f7ac978e5d6199de06401411960dfa81d2f762655f6206bdc61d46fc19e633610a7a565b61100857336040517fcdaa449b000000000000000000000000000000000000000000000000000000008152600401610fff9190611b72565b60405180910390fd5b60006002600083815260200190815260200160002090506002600581111561103357611032611a2e565b5b8160020160019054906101000a900460ff16600581111561105757611056611a2e565b5b1415801561109b57506004600581111561107457611073611a2e565b5b8160020160019054906101000a900460ff16600581111561109857611097611a2e565b5b14155b15611115578060020160019054906101000a900460ff1660058111156110c4576110c3611a2e565b5b600360058111156110d8576110d7611a2e565b5b6040517f6b46fcbe00000000000000000000000000000000000000000000000000000000815260040161110c929190611f2e565b60405180910390fd5b60038160020160016101000a81548160ff0219169083600581111561113d5761113c611a2e565b5b0217905550428160040181905550817f23a39165e7ea63387856bbb51381519f6966967b3e854e9b16035b778c1cb97d60405160405180910390a25050565b60007f01ffc9a7000000000000000000000000000000000000000000000000000000007bffffffffffffffffffffffffffffffffffffffffffffffffffffffff1916827bffffffffffffffffffffffffffffffffffffffffffffffffffffffff1916149050919050565b6111f7816111f26112eb565b6114e3565b50565b60006112068383610a7a565b6112e057600160008085815260200190815260200160002060000160008473ffffffffffffffffffffffffffffffffffffffff1673ffffffffffffffffffffffffffffffffffffffff16815260200190815260200160002060006101000a81548160ff02191690831515021790555061127d6112eb565b73ffffffffffffffffffffffffffffffffffffffff168273ffffffffffffffffffffffffffffffffffffffff16847f2f8788117e7eff1d82e926ec794901d17c78024a50270940304540a733656f0d60405160405180910390a4600190506112e5565b600090505b92915050565b600033905090565b60006112ff8383610a7a565b156113da57600080600085815260200190815260200160002060000160008473ffffffffffffffffffffffffffffffffffffffff1673ffffffffffffffffffffffffffffffffffffffff16815260200190815260200160002060006101000a81548160ff0219169083151502179055506113776112eb565b73ffffffffffffffffffffffffffffffffffffffff168273ffffffffffffffffffffffffffffffffffffffff16847ff6391f5c32d9c69d2a47ea670b442974b53935d1edc7fd64eb21e047a839171b60405160405180910390a4600190506113df565b600090505b92915050565b600082600001540361142f5760006040517f1ea951540000000000000000000000000000000000000000000000000000000081526004016114269190611f92565b60405180910390fd5b80600581111561144257611441611a2e565b5b8260020160019054906101000a900460ff16600581111561146657611465611a2e565b5b146114df578160020160019054906101000a900460ff16600581111561148f5761148e611a2e565b5b8160058111156114a2576114a1611a2e565b5b6040517f6b46fcbe0000000000000000000000000000000000000000000000000000000081526004016114d6929190611f2e565b60405180910390fd5b5050565b6114ed8282610a7a565b6115305780826040517fe2517d3f000000000000000000000000000000000000000000000000000000008152600401611527929190611fad565b60405180910390fd5b5050565b6000604051905090565b600080fd5b600080fd5b60007fffffffff0000000000000000000000000000000000000000000000000000000082169050919050565b61157d81611548565b811461158857600080fd5b50565b60008135905061159a81611574565b92915050565b6000602082840312156115b6576115b561153e565b5b60006115c48482850161158b565b91505092915050565b60008115159050919050565b6115e2816115cd565b82525050565b60006020820190506115fd60008301846115d9565b92915050565b6000819050919050565b61161681611603565b82525050565b6000602082019050611631600083018461160d565b92915050565b600073ffffffffffffffffffffffffffffffffffffffff82169050919050565b600061166282611637565b9050919050565b61167281611657565b811461167d57600080fd5b50565b60008135905061168f81611669565b92915050565b6000602082840312156116ab576116aa61153e565b5b60006116b984828501611680565b91505092915050565b6116cb81611603565b81146116d657600080fd5b50565b6000813590506116e8816116c2565b92915050565b6000602082840312156117045761170361153e565b5b6000611712848285016116d9565b91505092915050565b600080604083850312156117325761173161153e565b5b6000611740858286016116d9565b925050602061175185828601611680565b9150509250929050565b6000819050919050565b61176e8161175b565b811461177957600080fd5b50565b60008135905061178b81611765565b92915050565b6000602082840312156117a7576117a661153e565b5b60006117b58482850161177c565b91505092915050565b600080fd5b600080fd5b6000601f19601f8301169050919050565b7f4e487b7100000000000000000000000000000000000000000000000000000000600052604160045260246000fd5b611811826117c8565b810181811067ffffffffffffffff821117156118305761182f6117d9565b5b80604052505050565b6000611843611534565b905061184f8282611808565b919050565b600067ffffffffffffffff82111561186f5761186e6117d9565b5b611878826117c8565b9050602081019050919050565b82818337600083830152505050565b60006118a76118a284611854565b611839565b9050828152602081018484840111156118c3576118c26117c3565b5b6118ce848285611885565b509392505050565b600082601f8301126118eb576118ea6117be565b5b81356118fb848260208601611894565b91505092915050565b6003811061191157600080fd5b50565b60008135905061192381611904565b92915050565b600080604083850312156119405761193f61153e565b5b600083013567ffffffffffffffff81111561195e5761195d611543565b5b61196a858286016118d6565b925050602061197b85828601611914565b9150509250929050565b61198e8161175b565b82525050565b60006020820190506119a96000830184611985565b92915050565b600081519050919050565b600082825260208201905092915050565b60005b838110156119e95780820151818401526020810190506119ce565b60008484015250505050565b6000611a00826119af565b611a0a81856119ba565b9350611a1a8185602086016119cb565b611a23816117c8565b840191505092915050565b7f4e487b7100000000000000000000000000000000000000000000000000000000600052602160045260246000fd5b60038110611a6e57611a6d611a2e565b5b50565b6000819050611a7f82611a5d565b919050565b6000611a8f82611a71565b9050919050565b611a9f81611a84565b82525050565b60068110611ab657611ab5611a2e565b5b50565b6000819050611ac782611aa5565b919050565b6000611ad782611ab9565b9050919050565b611ae781611acc565b82525050565b611af681611657565b82525050565b600060e082019050611b11600083018a611985565b8181036020830152611b2381896119f5565b9050611b326040830188611a96565b611b3f6060830187611ade565b611b4c6080830186611aed565b611b5960a0830185611985565b611b6660c0830184611985565b98975050505050505050565b6000602082019050611b876000830184611aed565b92915050565b7f4e487b7100000000000000000000000000000000000000000000000000000000600052601160045260246000fd5b6000611bc78261175b565b91507fffffffffffffffffffffffffffffffffffffffffffffffffffffffffffffffff8203611bf957611bf8611b8d565b5b600182019050919050565b7f4e487b7100000000000000000000000000000000000000000000000000000000600052602260045260246000fd5b60006002820490506001821680611c4b57607f821691505b602082108103611c5e57611c5d611c04565b5b50919050565b60008190508160005260206000209050919050565b60006020601f8301049050919050565b600082821b905092915050565b600060088302611cc67fffffffffffffffffffffffffffffffffffffffffffffffffffffffffffffffff82611c89565b611cd08683611c89565b95508019841693508086168417925050509392505050565b6000819050919050565b6000611d0d611d08611d038461175b565b611ce8565b61175b565b9050919050565b6000819050919050565b611d2783611cf2565b611d3b611d3382611d14565b848454611c96565b825550505050565b600090565b611d50611d43565b611d5b818484611d1e565b505050565b5b81811015611d7f57611d74600082611d48565b600181019050611d61565b5050565b601f821115611dc457611d9581611c64565b611d9e84611c79565b81016020851015611dad578190505b611dc1611db985611c79565b830182611d60565b50505b505050565b600082821c905092915050565b6000611de760001984600802611dc9565b1980831691505092915050565b6000611e008383611dd6565b9150826002028217905092915050565b611e19826119af565b67ffffffffffffffff811115611e3257611e316117d9565b5b611e3c8254611c33565b611e47828285611d83565b600060209050601f831160018114611e7a5760008415611e68578287015190505b611e728582611df4565b865550611eda565b601f198416611e8886611c64565b60005b82811015611eb057848901518255600182019150602085019450602081019050611e8b565b86831015611ecd5784890151611ec9601f891682611dd6565b8355505b6001600288020188555050505b505050505050565b6000604082019050611ef76000830185611a96565b8181036020830152611f0981846119f5565b90509392505050565b600060ff82169050919050565b611f2881611f12565b82525050565b6000604082019050611f436000830185611f1f565b611f506020830184611f1f565b9392505050565b6000819050919050565b6000611f7c611f77611f7284611f57565b611ce8565b61175b565b9050919050565b611f8c81611f61565b82525050565b6000602082019050611fa76000830184611f83565b92915050565b6000604082019050611fc26000830185611aed565b611fcf602083018461160d565b939250505056fea26469706673582212205c049a7f3663c812a05db2f9f85dcc51198910f3af28231fe3f58224a87f095a64736f6c63430008140033",
  "linkReferences": {},
  "deployedLinkReferences": {}
}